:100000000C9461000C9473000C9473000C947300B6
:100010000C9473000C9473000C9473000C94730094
:100020000C9473000C9473000C9473000C94730084
:100030000C9473000C9473000C9473000C94730074
:100040000C94A4010C9473000C9473000C94730032
:100050000C9473000C9473000C9473000C94730054
:100060000C9473000C94730000000000240027001F
:100070002A0000000000250028002B0000000000DE
:1000800023002600290004040404040404040202DA
:100090000202020203030303030301020408102007
:1000A0004080010204081020010204081020000012
:1000B0000008000201000003040700000000000027
:1000C000000011241FBECFEFD8E0DEBFCDBF21E07E
:1000D000A0E0B1E001C01D92A930B207E1F70E9493
:1000E000EE010C94BE040C940000833081F028F4DF
:1000F000813099F08230A9F008958730A9F08830D6
:10010000C9F08430B1F4809180008F7D03C080916C
:1001100080008F7780938000089584B58F7784BDA9
:10012000089584B58F7DFBCF8091B0008F77809349
:10013000B00008958091B0008F7DF9CFCF93DF9309
:10014000282F30E0F901E255FF4F8491F901E6567E
:10015000FF4FD491F901EA57FF4FC491CC23A1F08E
:1001600081110E947500EC2FF0E0EE0FFF1FE458A4
:10017000FF4FA591B491EC91ED2381E090E009F45B
:1001800080E0DF91CF91089580E090E0FACF1F9357
:10019000CF93DF93282F30E0F901E255FF4F849190
:1001A000F901E656FF4FD491F901EA57FF4FC49188
:1001B000CC23A9F0162F81110E947500EC2FF0E0DE
:1001C000EE0FFF1FEE58FF4FA591B4918FB7F89433
:1001D000EC91111108C0D095DE23DC938FBFDF9125
:1001E000CF911F910895DE2BF8CFCF93DF9390E04E
:1001F000FC01E656FF4F24918A579F4FFC018491E2
:100200008823D1F090E0880F991FFC01E859FF4F37
:10021000A591B491FC01EE58FF4FC591D4916111A5
:100220000EC09FB7F8948C91E22FE0958E238C93AB
:100230002881E223E8839FBFDF91CF9108958FB794
:10024000F894EC91E22BEC938FBFF6CF3FB7F89484
:100250008091050190910601A0910701B0910801DC
:1002600026B5A89B05C02F3F19F00196A11DB11D11
:100270003FBFBA2FA92F982F8827BC01CD01620F4D
:10028000711D811D911D42E0660F771F881F991F08
:100290004A95D1F708958F929F92AF92BF92CF92D5
:1002A000DF92EF92FF920E9426014B015C0185E0F4
:1002B000C82ED12CE12CF12C0E9426016819790955
:1002C0008A099B09683E734081059105A8F321E0E6
:1002D000C21AD108E108F10888EE880E83E0981E62
:1002E000A11CB11CC114D104E104F10429F7FF9051
:1002F000EF90DF90CF90BF90AF909F908F90089538
:10030000CF93DF93EC01682F617088E00E94C700F3
:10031000BE0175956795617089E00E94C700BE01B6
:10032000759567957595679561708AE00E94C7001D
:1003300023E0D595C7952A95E1F76C2F61708BE086
:10034000DF91CF910C94C7001F920F920FB60F92BE
:1003500011242F933F938F939F93AF93BF938091DB
:10036000010190910201A0910301B091040130912B
:10037000000123E0230F2D3758F50196A11DB11D73
:10038000209300018093010190930201A093030147
:10039000B09304018091050190910601A09107019D
:1003A000B09108010196A11DB11D809305019093A4
:1003B0000601A0930701B0930801BF91AF919F91EF
:1003C0008F913F912F910F900FBE0F901F90189516
:1003D00026E8230F0296A11DB11DD2CF789484B5D3
:1003E000826084BD84B5816084BD85B5826085BD31
:1003F00085B5816085BD80916E00816080936E00BF
:1004000010928100809181008260809381008091B0
:100410008100816080938100809180008160809361
:1004200080008091B10084608093B1008091B00021
:1004300081608093B00080917A00846080937A001C
:1004400080917A00826080937A0080917A00816046
:1004500080937A0080917A00806880937A0010926D
:10046000C10061E081E00E94F50061E080E00E944F
:10047000F50060E084E00E94F50060E083E00E9407
:10048000F50060E082E00E94F50060E087E00E94F5
:10049000F50060E081E00E94C70060E080E00E941B
:1004A000C70061E088E00E94F50061E089E00E94F9
:1004B000F50061E08AE00E94F50061E08BE00E94B7
:1004C000F50061E08DE00E94F50061E08CE00E94A3
:1004D000F50060E08DE00E94C70060E08CE00E94C3
:1004E000C70060E08EE00E94F50080E4582E9AE09C
:1004F000692E712CC0E0D0E084E00E949E006C0167
:1005000083E00E949E007C0182E00E949E008C019C
:1005100050927C0080917A00806480937A00809170
:100520007A0086FDFCCF6091780070917900072EEB
:10053000000C880B990B0E949D0320E030E040EAFC
:1005400050E40E94290420E030EC4FE754E40E947C
:10055000F30220E030E048EC52E40E9429044B0111
:100560005C0161E0CD28D1F5EF28A9F160E081E0E0
:100570000E94C70061E080E00E94C700C501B4018D
:100580000E9465038B0161E08DE00E94C7000E941C
:100590004B0160E08CE00E94C700C801B3010E94DB
:1005A00096048B010E9480010E944B0160E08DE067
:1005B0000E94C7000E944B0161E08CE00E94C700CE
:1005C000C8010E9480010E944B01209709F494CF3A
:1005D0000E94000091CF012B89F260E081E00E942F
:1005E000C70060E0C8CF0E9407030C94EF030E948D
:1005F000E80358F00E94E10340F029F45F3F29F03E
:100600000C94D80351110C9423040C94DE030E9423
:10061000000468F39923B1F3552391F3951B550B0F
:10062000BB27AA2762177307840738F09F5F5F4FC5
:10063000220F331F441FAA1FA9F335D00E2E3AF004
:10064000E0E832D091505040E695001CCAF72BD01C
:10065000FE2F29D0660F771F881FBB1F261737076D
:100660004807AB07B0E809F0BB0B802DBF01FF279F
:1006700093585F4F3AF09E3F510578F00C94D803A1
:100680000C9423045F3FE4F3983ED4F3869577956A
:100690006795B795F7959F5FC9F7880F911D969558
:1006A000879597F90895E1E0660F771F881FBB1FB4
:1006B000621773078407BA0720F0621B730B840B61
:1006C000BA0BEE1F88F7E09508950E946C036894BA
:1006D000B1110C94230408950E94080488F09F57D8
:1006E00098F0B92F9927B751B0F0E1F0660F771F56
:1006F000881F991F1AF0BA95C9F714C0B13091F04C
:100700000E942204B1E008950C942204672F782FF0
:100710008827B85F39F0B93FCCF386957795679510
:10072000B395D9F73EF490958095709561957F4F7C
:100730008F4F9F4F0895E89409C097FB3EF4909522
:100740008095709561957F4F8F4F9F4F9923A9F0AA
:10075000F92F96E9BB279395F69587957795679539
:10076000B795F111F8CFFAF4BB0F11F460FF1BC07D
:100770006F5F7F4F8F4F9F4F16C0882311F096E910
:1007800011C0772321F09EE8872F762F05C06623BE
:1007900071F096E8862F70E060E02AF09A95660F77
:1007A000771F881FDAF7880F9695879597F9089530
:1007B00097F99F6780E870E060E008959FEF80EC14
:1007C000089500240A9416161706180609060895B7
:1007D00000240A9412161306140605060895092E1D
:1007E0000394000C11F4882352F0BB0F40F4BF2B8C
:1007F00011F460FF04C06F5F7F4F8F4F9F4F0895CC
:1008000057FD9058440F551F59F05F3F71F04795C1
:10081000880F97FB991F61F09F3F79F087950895A6
:10082000121613061406551FF2CF4695F1DF08C0C5
:10083000161617061806991FF1CF869571056105E2
:1008400008940895E894BB2766277727CB0197F98A
:1008500008950E943C040C94EF030E94E10338F0D9
:100860000E94E80320F0952311F00C94D8030C9417
:10087000DE0311240C9423040E94000470F3959F5E
:10088000C1F3950F50E0551F629FF001729FBB2787
:10089000F00DB11D639FAA27F00DB11DAA1F649F23
:1008A0006627B00DA11D661F829F2227B00DA11DD6
:1008B000621F739FB00DA11D621F839FA00D611D5C
:1008C000221F749F3327A00D611D231F849F600D7D
:1008D000211D822F762F6A2F11249F5750409AF0A6
:1008E000F1F088234AF0EE0FFF1FBB1F661F771F32
:1008F000881F91505040A9F79E3F510580F00C94FD
:10090000D8030C9423045F3FE4F3983ED4F3869518
:1009100077956795B795F795E7959F5FC1F7FE2B9C
:10092000880F911D9695879597F9089597FB072E47
:1009300016F4009407D077FD09D00E94AA0407FCA2
:1009400005D03EF4909581959F4F089570956195DF
:100950007F4F0895AA1BBB1B51E107C0AA1FBB1FF5
:10096000A617B70710F0A61BB70B881F991F5A953B
:10097000A9F780959095BC01CD010895F894FFCF1B
:00000001FF
