:100000000C9462000C948A000C948A000C948A0070
:100010000C948A000C948A000C948A000C948A0038
:100020000C948A000C948A000C948A000C948A0028
:100030000C948A000C948A000C948A000C948A0018
:100040000C9454040C948A000C94C4040C949E04E4
:100050000C948A000C948A000C948A000C948A00F8
:100060000C948A000C948A000000000024002700F1
:100070002A0000000000250028002B0000000000DE
:1000800023002600290004040404040404040202DA
:100090000202020203030303030301020408102007
:1000A0004080010204081020010204081020000012
:1000B0000008000201000003040700000000000027
:1000C0000000F60411241FBECFEFD8E0DEBFCDBF85
:1000D00011E0A0E0B1E0EAE1F1E102C005900D928B
:1000E000AA3AB107D9F722E0AAEAB1E001C01D920D
:1000F000AA36B207E1F710E0C2E6D0E004C02197CB
:10010000FE010E948508C136D107C9F70E9440054B
:100110000C948B080C940000833081F028F481301B
:1001200099F08230A9F008958730A9F08830C9F09D
:100130008430B1F4809180008F7D03C08091800075
:100140008F7780938000089584B58F7784BD08955C
:1001500084B58F7DFBCF8091B0008F778093B00006
:1001600008958091B0008F7DF9CFCF93DF93E8EBB6
:10017000F0E08491E4EAF0E0D491E0E9F0E0C491A9
:10018000CC23A1F081110E948C00EC2FF0E0EE0F47
:10019000FF1FE458FF4FA591B491EC91ED2381E04E
:1001A00090E009F480E0DF91CF91089580E090E045
:1001B000FACF1F93CF93DF93282F30E0F901E25558
:1001C000FF4F8491F901E656FF4FD491F901EA57A8
:1001D000FF4FC491CC23A9F0162F81110E948C00EF
:1001E000EC2FF0E0EE0FFF1FEE58FF4FA591B491FA
:1001F0008FB7F894EC91111108C0D095DE23DC93F1
:100200008FBFDF91CF911F910895DE2BF8CFCF9351
:10021000DF9390E0FC01E656FF4F24918A579F4FF1
:10022000FC0184918823D1F090E0880F991FFC0194
:10023000E859FF4FA591B491FC01EE58FF4FC591CD
:10024000D49161110EC09FB7F8948C91E22FE09584
:100250008E238C932881E223E8839FBFDF91CF9187
:1002600008958FB7F894EC91E22BEC938FBFF6CF03
:100270003FB7F8948091B1019091B201A091B30180
:10028000B091B40126B5A89B05C02F3F19F0019687
:10029000A11DB11D3FBFBA2FA92F982F8827BC01E0
:1002A000CD01620F711D811D911D42E0660F771F08
:1002B000881F991F4A95D1F708958F929F92AF9208
:1002C000BF92CF92DF92EF92FF924B015C010E94AE
:1002D00038016B017C010E9438016C197D098E097F
:1002E0009F09683E734081059105A8F321E0821AB9
:1002F0009108A108B10888EEC80E83E0D81EE11C61
:10030000F11C81149104A104B10429F7FF90EF902E
:10031000DF90CF90BF90AF909F908F900895AF9255
:10032000BF92CF92DF92EF92FF920F931F93CF93E2
:10033000DF936C017B018B01040F151FEB015E0144
:10034000AE18BF08C017D10759F06991D601ED91D9
:10035000FC910190F081E02DC6010995892B79F778
:10036000C501DF91CF911F910F91FF90EF90DF902A
:10037000CF90BF90AF900895FC01538D448D252FF1
:1003800030E0842F90E0821B930B541710F0CF962F
:10039000089501970895FC01918D828D981761F061
:1003A000A28DAE0FBF2FB11D5D968C91928D9F5F78
:1003B0009F73928F90E008958FEF9FEF0895FC0157
:1003C000918D828D981731F0828DE80FF11D858D0A
:1003D00090E008958FEF9FEF0895FC01918D228D9D
:1003E000892F90E0805C9F4F821B91098F73992722
:1003F000089585EB91E00E94ED0121E0892B09F43D
:1004000020E0822F089580E090E0892B29F00E945F
:10041000F90181110C9400000895FC01A48DA80F2E
:10042000B92FB11DA35ABF4F2C91848D90E0019636
:100430008F739927848FA689B7892C93A089B18956
:100440008C91837080648C93938D848D981306C0F7
:100450000288F389E02D80818F7D80830895EF925B
:10046000FF920F931F93CF93DF93EC0181E0888F6E
:100470009B8D8C8D98131AC0E889F989808185FF3E
:1004800015C09FB7F894EE89FF896083E889F989E0
:1004900080818370806480839FBF81E090E0DF91E2
:1004A000CF911F910F91FF90EF900895F62E0B8D35
:1004B00010E00F5F1F4F0F731127E02E8C8D8E11F0
:1004C0000CC00FB607FCFACFE889F989808185FF57
:1004D000F5CFCE010E940D02F1CFEB8DEC0FFD2F79
:1004E000F11DE35AFF4FF0829FB7F8940B8FEA8912
:1004F000FB8980818062CFCFCF93DF93EC01888D21
:100500008823B9F0AA89BB89E889F9898C9185FD8E
:1005100003C0808186FD0DC00FB607FCF7CF8C911C
:1005200085FFF2CF808185FFEDCFCE010E940D02C5
:10053000E9CFDF91CF910895089590E080E008958C
:100540008F929F92AF92BF920F931F93CF93DF939F
:10055000CDB7DEB7A1970FB6F894DEBF0FBECDBF03
:1005600019A2423008F44AE08E010F5D1F4F842E1D
:10057000912CB12CA12CA50194010E946308E62FB7
:10058000B901CA01EA3044F5E05DD801EE938D016E
:10059000232B242B252B79F790E080E0109769F02E
:1005A000FD0101900020E9F73197AF014A1B5B0B79
:1005B000BD0182E592E00E948F01A1960FB6F894EA
:1005C000DEBF0FBECDBFDF91CF911F910F91BF90C6
:1005D000AF909F908F900895E95CD7CFFC01019078
:1005E0000020E9F73197AF01481B590BBC0182E5A8
:1005F00092E00C948F01CF93DF93EC0160E08E8149
:100600000E94D90061E08E810E94D90060E08E8155
:100610000E94D9008BE891E00197F1F7DF91CF912B
:100620000895CF92DF92EF92FF920F931F93CF9393
:10063000DF936C017C0187E0E80EF11CD0E0C0E0A4
:10064000062F10E0B8010C2E02C0759567950A942C
:10065000E2F76170F70181917F010E94D900219634
:10066000C430D10579F7C601DF91CF911F910F9169
:10067000FF90EF90DF90CF900C94FB02CF92DF922F
:10068000EF92FF920F931F93CF93DF93EC01F62E1F
:10069000642F8C810E94D9008D818F3F19F060E01A
:1006A0000E94D9000F2D10E08F8584FF25C06E01B8
:1006B00087E0C80ED11CF12CE12CB8010E2C02C031
:1006C000759567950A94E2F76170F60181916F0163
:1006D0000E94D900FFEFEF1AFF0A88E0E816F10444
:1006E00061F7CE01DF91CF911F910F91FF90EF90B5
:1006F000DF90CF900C94FB02B80184E0759567956C
:100700008A95E1F7CE010E9411036F2DCE01DF9192
:10071000CF911F910F91FF90EF90DF90CF900C94AD
:10072000110340E0682F82E592E00C943E0381E0E3
:100730000E9491038BE39FE10197F1F70895CF9316
:10074000DF93823029F49091610298609093610266
:10075000809365021092660280E48093670280E1D4
:100760008093680280E58093690261E0809156027F
:100770000E940701809157028F3F19F061E00E94AB
:10078000070161E0809158020E940701C2E5D2E0B2
:100790009E01225532408091610284FD0BC084E0AD
:1007A00090E021962817390744F461E08E810E9479
:1007B0000701EECF88E090E0F4CF8BE39DE0019756
:1007C000F1F760E0809156020E94D90060E08091CC
:1007D00058020E94D900809157028F3F19F060E0C3
:1007E0000E94D9008091610284FD34C063E082E5FB
:1007F00092E00E941103CBE4D6E4CE010197F1F719
:1008000063E082E592E00E9411032197F1F763E033
:1008100082E592E00E94110383E592E00197F1F7EF
:1008200062E082E592E00E941103809161028062A1
:100830000E94910384E0809362028CE00E94910305
:100840000E94970382E08093630286E0DF91CF915C
:100850000C94910380620E9491038BE496E40197CB
:10086000F1F78091610280620E94910383E592E03A
:100870000197F1F78091610280620E949103D5CFC8
:1008800090916502891710F08FEF890FE82FF0E043
:10089000EE5AFD4F848980680C94910341E00E94D8
:1008A0003E0381E090E008951F920F920FB60F92E1
:1008B00011242F933F938F939F93AF93BF93809176
:1008C000AD019091AE01A091AF01B091B001309116
:1008D000AC0123E0230F2D3758F50196A11DB11D62
:1008E0002093AC018093AD019093AE01A093AF0132
:1008F000B093B0018091B1019091B201A091B30188
:10090000B091B4010196A11DB11D8093B1019093E6
:10091000B201A093B301B093B401BF91AF919F9185
:100920008F913F912F910F900FBE0F901F901895B0
:1009300026E8230F0296A11DB11DD2CF1F920F9260
:100940000FB60F9211242F933F934F935F936F93A2
:100950007F938F939F93AF93BF93EF93FF9385EB19
:1009600091E00E940D02FF91EF91BF91AF919F9195
:100970008F917F916F915F914F913F912F910F9048
:100980000FBE0F901F9018951F920F920FB60F92E7
:1009900011242F938F939F93EF93FF93E091C501C1
:1009A000F091C6018081E091CB01F091CC0182FDF4
:1009B0001BC090818091CE018F5F8F732091CF01FA
:1009C000821741F0E091CE01F0E0EB54FE4F958F9D
:1009D0008093CE01FF91EF919F918F912F910F9076
:1009E0000FBE0F901F9018958081F4CFE5EBF1E0DA
:1009F0001382128288EE93E0A0E0B0E084839583B6
:100A0000A683B78384E091E09183808385EC90E0B6
:100A10009587848784EC90E09787868780EC90E0C8
:100A2000918B808B81EC90E0938B828B82EC90E0B9
:100A3000958B848B86EC90E0978B868B118E128E33
:100A4000138E148EE2E5F2E01382128286E191E0C9
:100A50009183808382E084838FEF858383E0868324
:100A600084E0878385E0808786E0818787E08287CE
:100A70001386148615861686178681E00C949F03CC
:100A8000789484B5826084BD84B5816084BD85B569
:100A9000826085BD85B5816085BD80916E00816075
:100AA00080936E001092810080918100826080931B
:100AB000810080918100816080938100809180001D
:100AC0008160809380008091B10084608093B10048
:100AD0008091B00081608093B00080917A00846042
:100AE00080937A0080917A00826080937A0080916E
:100AF0007A00816080937A0080917A008068809388
:100B00007A001092C10082E00E949F0360E08AE0B8
:100B10000E94070160E08EE00E94070161E089E029
:100B20000E94070161E088E00E94070161E08BE01C
:100B30000E94070161E08CE00E94070161E08DE006
:100B40000E94070160E08BE00E94D90060E08CE029
:100B50000E94D90060E08DE00E94D900E091C501BB
:100B6000F091C60182E08083E091C101F091C20161
:100B70001082E091C301F091C4018FEC8083109248
:100B8000CD01E091C901F091CA0186E08083E09136
:100B9000C701F091C801808180618083E091C70125
:100BA000F091C801808188608083E091C701F09155
:100BB000C801808180688083E091C701F091C801FD
:100BC00080818F7D80838EE191E00E94EE0281E042
:100BD0000E9440048DE291E00E94EE0260E273E028
:100BE00080E090E00E945D010E94970380E4782EEF
:100BF00000E010E085EB91E00E94ED011816190667
:100C0000D4F485EB91E00E94CB01EC019093AB0111
:100C10008093AA010E949703CE31D10509F4B3C095
:100C20000CF09FC0CF30D10509F4D2C0619709F410
:100C3000C6C00E94970370927C0080917A00806405
:100C400080937A0080917A0086FDFCCF60917800D5
:100C500070917900072E000C880B990B0E944107B8
:100C60002AE038E240EA5BE30E94AA0720E030E095
:100C700048EC52E40E94AA074B015C0180E00E940C
:100C8000400486E891E00E94EE02C501B4010E9492
:100C900009076B01770FEE08FF084AE0C701B601AC
:100CA000F7FE0EC041E06DE282E592E00E943E0355
:100CB00066277727CB016C197D098E099F094AE0C9
:100CC0000E94A0028DE891E00E94EE0220E030E058
:100CD00048EC51E4C501B4010E94A50718160CF0B8
:100CE00089C061E08DE00E94D90081E00E9440044B
:100CF00081E691E00E94EE0260E971E080E090E020
:100D00000E945D010E9497030E94B500892B09F49F
:100D100077C080E00E94400480E991E00E94EE02EA
:100D200081E00E9440048CE991E00E94EE0261E0C3
:100D300089E00E94D90061E088E00E94D9000E9409
:100D4000B500892BE1F70E9497030115110509F4FD
:100D500051CF0E94F901882309F44CCF0E94000072
:100D600049CFC434D10511F1C83FD105D1F1ED9778
:100D700009F05FCF60E08CE00E94D9000E949703E9
:100D800087E591E008C061E08BE00E94D9000E94F5
:100D900097038DE391E00E94EE0260E971E080E04C
:100DA00090E00E945D010E94970343CF60E08BE0DA
:100DB0000E94D9000E94970385E491E0ECCF61E0A6
:100DC0008CE00E94D9000E9497038EE491E0E3CF6B
:100DD00061E08DE00E94D9000E94970381E691E0D6
:100DE000DACF60E08DE00E94D9000E94970383E78C
:100DF00091E0D1CF81E00E94400483E791E07ACF77
:100E000060E089E00E94D90060E088E00E94D9009B
:100E10009ACF0E9410076894B1110C949F0708950F
:100E20000E94840788F09F5798F0B92F9927B751EF
:100E3000B0F0E1F0660F771F881F991F1AF0BA957E
:100E4000C9F714C0B13091F00E949E07B1E0089537
:100E50000C949E07672F782F8827B85F39F0B93F29
:100E6000CCF3869577956795B395D9F73EF4909531
:100E70008095709561957F4F8F4F9F4F0895E894AF
:100E800009C097FB3EF490958095709561957F4FD2
:100E90008F4F9F4F9923A9F0F92F96E9BB27939580
:100EA000F695879577956795B795F111F8CFFAF490
:100EB000BB0F11F460FF1BC06F5F7F4F8F4F9F4FC1
:100EC00016C0882311F096E911C0772321F09EE81F
:100ED000872F762F05C0662371F096E8862F70E085
:100EE00060E02AF09A95660F771F881FDAF7880F5F
:100EF0009695879597F9089557FD9058440F551F7B
:100F000059F05F3F71F04795880F97FB991F61F08B
:100F10009F3F79F087950895121613061406551F02
:100F2000F2CF4695F1DF08C0161617061806991F6E
:100F3000F1CF86957105610508940895E894BB2763
:100F400066277727CB0197F908950E94170808F4C0
:100F50008FEF08950E94BD070C9452080E94440828
:100F600038F00E944B0820F0952311F00C943B08B8
:100F70000C94410811240C949F070E947C0770F385
:100F8000959FC1F3950F50E0551F629FF001729F2E
:100F9000BB27F00DB11D639FAA27F00DB11DAA1F3D
:100FA000649F6627B00DA11D661F829F2227B00D8A
:100FB000A11D621F739FB00DA11D621F839FA00D15
:100FC000611D221F749F3327A00D611D231F849F65
:100FD000600D211D822F762F6A2F11249F575040BC
:100FE0009AF0F1F088234AF0EE0FFF1FBB1F661F37
:100FF000771F881F91505040A9F79E3F510580F000
:101000000C943B080C949F075F3FE4F3983ED4F3A5
:10101000869577956795B795F795E7959F5FC1F7A3
:10102000FE2B880F911D9695879597F90895990F36
:101030000008550FAA0BE0E8FEEF16161706E807A2
:10104000F907C0F012161306E407F50798F0621BC3
:10105000730B840B950B39F40A2661F0232B242B98
:10106000252B21F408950A2609F4A140A6958FEFB7
:10107000811D811D089597F99F6780E870E060E009
:1010800008959FEF80EC089500240A941616170621
:1010900018060906089500240A9412161306140669
:1010A00005060895092E0394000C11F4882352F0CC
:1010B000BB0F40F4BF2B11F460FF04C06F5F7F4F84
:1010C0008F4F9F4F0895A1E21A2EAA1BBB1BFD0153
:1010D0000DC0AA1FBB1FEE1FFF1FA217B307E40717
:1010E000F50720F0A21BB30BE40BF50B661F771F6F
:1010F000881F991F1A9469F760957095809590954F
:101100009B01AC01BD01CF010895EE0FFF1F0590BB
:0A111000F491E02D0994F894FFCF4C
:10111A00000000002F028F01BC017C02ED01CB010F
:10112A00DF01000000004E048F019D029C025765FA
:10113A006C636F6D65204D617277616E00534D412E
:10114A0052545F484F4D455F49454545004C45441B
:10115A00204F4E20004C4544204F464620004C610B
:10116A006D70204F4E20004C616D70204F46462016
:10117A000041697220436F6E646974696F6E204F13
:10118A004E200041697220436F6E646974696F6E04
:10119A00204F4646200054656D703A2000204300D7
:1011AA002020202020416C65727421004761732041
:0A11BA0064657465637465642100C8
:00000001FF
